:020000040000fa
:080000000001040000000000f3
:020000040000fa
:0400080004030000ed
:020000040000fa
:04000c0004030000e9
:020000040000fa
:0400100004030000e5
:020000040000fa
:0400140004030000e1
:020000040000fa
:0400180004030000dd
:020000040000fa
:04001c0004030000d9
:020000040000fa
:0400200004030000d5
:020000040000fa
:0400240004030000d1
:020000040000fa
:0400280004030000cd
:020000040000fa
:04002c0004030000c9
:020000040000fa
:0400300004030000c5
:020000040000fa
:040034007602000050
:020000040000fa
:0400380004030000bd
:020000040000fa
:04003c0004030000b9
:020000040000fa
:0400400004030000b5
:020000040000fa
:04004400ae02000008
:020000040000fa
:0400480004030000ad
:020000040000fa
:04004c0004030000a9
:020000040000fa
:0400500004030000a5
:020000040000fa
:040054001402000092
:020000040000fa
:04005800040300009d
:020000040000fa
:04005c000403000099
:020000040000fa
:040060000403000095
:020000040000fa
:040064000403000091
:020000040000fa
:04006800040300008d
:020000040000fa
:04006c000403000089
:020000040000fa
:040070000403000085
:020000040000fa
:04007400c6020000c0
:020000040000fa
:04007800040300007d
:020000040000fa
:04007c000403000079
:020000040000fa
:040080000403000075
:020000040000fa
:040084000403000071
:020000040000fa
:04008800040300006d
:020000040000fa
:04008c000403000069
:020000040000fa
:040090000403000065
:020000040000fa
:040094000403000061
:020000040000fa
:04009800040300005d
:020000040000fa
:04009c000403000059
:020000040000fa
:0400a0002802000032
:020000040000fa
:0400a4000403000051
:020000040000fa
:0400a800040300004d
:020000040000fa
:0400ac000403000049
:020000040000fa
:0400b0000403000045
:020000040000fa
:0400b4000403000041
:020000040000fa
:0400b800040300003d
:020000040000fa
:0400bc000403000039
:020000040000fa
:0400c0000403000035
:020000040000fa
:0400c4000403000031
:020000040000fa
:0400c800040300002d
:020000040000fa
:0400cc000403000029
:020000040000fa
:0400d0000403000025
:020000040000fa
:0400d4000403000021
:020000040000fa
:0400d800040300001d
:020000040000fa
:0400dc000403000019
:020000040000fa
:0400e0000403000015
:020000040000fa
:0400e4000403000011
:020000040000fa
:0400e800040300000d
:020000040000fa
:0400ec000403000009
:020000040000fa
:0400f0000403000005
:020000040000fa
:0400f4000403000001
:020000040000fa
:0400f80004030000fd
:020000040000fa
:0400fc0004030000f9
:020000040000fa
:0401000004030000f4
:020000040000fa
:0401040004030000f0
:020000040000fa
:0401080004030000ec
:020000040000fa
:04010c0004030000e8
:020000040000fa
:0401100004030000e4
:020000040000fa
:0401140004030000e0
:020000040000fa
:0401180004030000dc
:020000040000fa
:04011c0004030000d8
:020000040000fa
:0401200004030000d4
:020000040000fa
:0401240004030000d0
:020000040000fa
:0401280004030000cc
:020000040000fa
:04012c0004030000c8
:020000040000fa
:0401300004030000c4
:020000040000fa
:0401340004030000c0
:020000040000fa
:0401380004030000bc
:020000040000fa
:04013c0004030000b8
:020000040000fa
:0401400004030000b4
:020000040000fa
:0401440004030000b0
:020000040000fa
:0401480004030000ac
:020000040000fa
:04014c0004030000a8
:020000040000fa
:0401500004030000a4
:020000040000fa
:0401540004030000a0
:020000040000fa
:04015800040300009c
:020000040000fa
:04015c000403000098
:020000040000fa
:040160000403000094
:020000040000fa
:040164000403000090
:020000040000fa
:04016800040300008c
:020000040000fa
:04016c000403000088
:020000040000fa
:040170000403000084
:020000040000fa
:040174000403000080
:020000040000fa
:04017800040300007c
:020000040000fa
:04017c000403000078
:020000040000fa
:040180000403000074
:020000040000fa
:040184000403000070
:020000040000fa
:04018800040300006c
:020000040000fa
:04018c000403000068
:020000040000fa
:040190000403000064
:020000040000fa
:040194000403000060
:020000040000fa
:04019800040300005c
:020000040000fa
:04019c000403000058
:020000040000fa
:0401a0000403000054
:020000040000fa
:0401a4000403000050
:020000040000fa
:0401a800040300004c
:020000040000fa
:0401ac000403000048
:020000040000fa
:0401b0000403000044
:020000040000fa
:0401b4000403000040
:020000040000fa
:0401b800040300003c
:020000040000fa
:0401bc000403000038
:020000040000fa
:0401c0000403000034
:020000040000fa
:0401c4000403000030
:020000040000fa
:0401c800040300002c
:020000040000fa
:0401cc000403000028
:020000040000fa
:0401d0000403000024
:020000040000fa
:0401d4000403000020
:020000040000fa
:0401d800040300001c
:020000040000fa
:0401dc000403000018
:020000040000fa
:0401e0000403000014
:020000040000fa
:0401e4000403000010
:020000040000fa
:0401e800040300000c
:020000040000fa
:0401ec000403000008
:020000040000fa
:0401f0000403000004
:020000040000fa
:0401f4000403000000
:020000040000fa
:0401f80004030000fc
:020000040000fa
:0401fc0004030000f8
:020000040000fa
:10020000cf3021000eff27000e0188000000000003
:10021000000020000000e000020032000001200089
:100220002002880014000700f90007000000e00029
:1002300003003a00201c27000100200002003700c4
:100240000000200001002000810f7000010032003a
:1002500014000700000020000000e000020032004f
:100260000000020000000000e26e0200000000003a
:100270000040da000000fe004440a900e04a2700e8
:100280000000e000030032001020200090018800f0
:100290004440a800000006008a1f78008b1f7800e9
:1002a00000000600a1028800800478000000eb0036
:1002b0001f003700e284440054a0b4009905ba003e
:1002c000e284440054a0b4009906ba00e2844400d9
:1002d00054a0b4000006eb00476fde00fd07b2003b
:1002e000ae018800636ce10003003a00eaff0700fa
:1002f0000000eb000e003700606ce10008003a00df
:10030000004deb000a05e800020039003420ec0043
:100310000af0a0008b05e900f9ff3e000400370059
:100320006168e100010032000086eb000b0007006d
:1003300019c7ba001905ba000e04e00003003a001c
:100340000a00e000dbff3a0000000600fe07b200f2
:10035000ae0288008a047800f5ff37000cd0a300b5
:10036000e20f4d001c00390089027800354dba00bb
:100370000a05e800020039003420ec000af0a00071
:100380008b05e9000f003200254dba000a05e80090
:10039000020039003420ec000af0a0008b05e900cf
:1003a000080032000c00e0000600320015cdba0053
:1003b0000a05e800020039003420ec000af0a00031
:1003c0008b05e9008984e80054a0b4000b00e0002c
:1003d000e2ff3a00000006009902ba00055d7800cd
:1003e0008b05e900f7ff3200c82ade00055d7800c2
:1003f0008b05e900f3ff32000c00e000f1ff320052
:1004000019ddba00eeff370016710400000000008d
:100410001e70040000000000d42e04000100000043
:100420004a2e040001000000801f78000000fa003e
:10043000f01c8000a04288008960a90010c0b300b1
:1004400050e8b7000080fa004f0078000040060036
:10045000809fbe00821f78000000fa0051048000d7
:1004600000002400008060000000e0001a0032005c
:100470004228ef0012408000a01d800080407800dc
:1004800050802000000041000148780011408000a9
:10049000508020000080400090407800a0cab30047
:1004a00080cf500009003a0009d3bf000040e800a7
:1004b00009f3b70009d3bf00e44f500003003a002e
:1004c0000973ef0010c0b30046e8b7001040800089
:1004d0000000e800104088008bc0a9000080fa00ee
:1004e0004f0178004f00be0000400600801f7800da
:1004f0000000fa0010428000e10f50000d003600ad
:10050000104080000000e0000a00320046c8bf0032
:10051000e14f500007003a0010c0b30048e8b700b0
:1005200010c0b30047e8b7004028ef004668ef006e
:100530000973ef00104280000000e80010428800bc
:10054000004280000000e800004288008860a900a6
:100550000080fa004f00780000400600801f7800fd
:100560000000fa0044c8bf000040e80044e8b700bb
:1005700045c8bf000040e80045e8b70088e0a90092
:100580000080fa004f00780000400600809fbe0007
:100590000200fa000000eb00000f78005004800019
:1005a000680060000000e000130032008cc9bf004a
:1005b0000004e00010003a0000f42100000f780071
:1005c000000000001e0078008000780001f0a70005
:1005d0008100ea008100ea00cf08de008140780057
:1005e0000000e900000f78000104e000f5ff3a0088
:1005f00010c0b3008ce9b7008a60a9000080fa003f
:100600004f00be00004006000040da000000fe007f
:1006100000000500140020009f033700f4ff2f00a6
:100620009d0337000001be001e0007000470a700f4
:1006300003f0a10003f8a30013003a006509b1001c
:1006400010003200090035006928e1000200350081
:1006500001002800000005000000400081804800e3
:100660008502e900fcff3a0000000600f88f420016
:10067000050035008100d1000080d3008502e8002c
:10068000fcff3a00000006008000eb0000000500bf
:100690004f89de00820178009a0337006011b800ac
:1006a000a8033700c70ade00f107b200f50fb20059
:1006b00008003200e1cf4200020032000170a000c9
:1006c00024000500810f70000100320004080500bd
:1006d00044000500810f700002003a00140005007c
:1006e0008502e9000000400081c04800fcff3b009b
:1006f0000170a000240005006022b800060220005e
:100700000000d0008180d2000482d2008582d20015
:100710000000a0000202520083825a000300310050
:100720000202420083824a000000a1000603e900a1
:10073000f3ff3a0000000600efff07000400be00d0
:100740000000060007f82700078361000638e10073
:1007500004003a00f70720008783610087037100d7
:1007600001003a0003f0a200889fbe008a9fbe00ed
:100770008c9fbe00470ade000480a100c71ade007d
:100780000580a100070028000785600087856100bb
:10079000f70f20000720e1009e0032000728e1004b
:1007a0009c003200010678000400e000b400320032
:1007b000f7072000878060000170a0000500e000be
:1007c000c0003200f7072000878161000370a0009d
:1007d000050652000f003a000b50e1000b003200fa
:1007e0000308e10002003a000200e1007e0032004e
:1007f0000204500083845800040031000001fd0011
:100800008101fd008402fd008a05fd006044b800fe
:10081000210037000520e10005003d000001fd003a
:100820008101fd008402fd008a05fd0005065200dd
:100830007a60e100050035000170a1004722dd006b
:10084000848070008a807000630037006044b800c4
:10085000ef02660007ff2f00070666000500e000b4
:1008600006003400f08312008714dd000511de005d
:10087000071bdd00060171008519de007060e100d4
:10088000050035000904780082047800030178002f
:100890008001eb00700656000b50e10003003a00a7
:1008a0000200400083804800040037006004140008
:1008b000e0841c0002005800838058000188a300d7
:1008c000060032008100d1000080d3008984d3006b
:1008d0000884d3000402e800270037000178a30051
:1008e00025003a000100e000030032008186cf00bd
:1008f000698656000a0037008c0020000000e000e6
:1009000004003a0009007800880478000004eb0035
:10091000700252008086cf000d0646000c06e900ea
:100920007060e10006003500800078000900780062
:10093000880478000004eb00700656007002520034
:100940000c00e0000c0034008c08dd00f003160001
:100950000703de00868070000c00dd00074bde0020
:10096000060070008c4cdd000743de0086847400b6
:100970000c44dd000c0252006120e1002000350033
:10098000610160000700280087816400f7ff2700ed
:1009900087836400070374000300e0000600320050
:1009a00082037300040032000000e800e080480089
:1009b0000188a3000e003a00f70f20000720e10095
:1009c0004a003d000170a1004722dd008100720055
:1009d0008a8070000000be004f06be004f05be00ba
:1009e0004f04be00000006006000b800faff3700a8
:1009f0008100d1000080d3000402e800eeff370040
:100a00000401780089017400a10107008a80700048
:100a1000f1ff3700f7010700070278000001fd0031
:100a20008101fd00f3010700870278008503720051
:100a30000778a300040032000001fd008101fd00e1
:100a400006020700e4ff3700850362000768a30081
:100a5000080032000b50e10003003200f0ff2f00cd
:100a6000f1ff2700dcff37000001fd008101fd00e0
:100a7000d9ff37000468a300d7ff3200faff370020
:100a8000f8ff2700888360000b003a000000e000b8
:100a900009003a008303640082837300020032007d
:100aa0000200be00ccff37000b50e100ceff3a0041
:100ab0000200be00c8ff370014002000810064005f
:100ac0003eff3700f8ff27008883610004003a00ea
:100ad0000200e00002003a008c007800beff370000
:100ae000150020008301640039ff370001f827005a
:100af0000000200081007500b7ff3700889fbe000e
:100b00008a9fbe008c9fbe001b0020000202be0018
:100b10000586680006002800060666004709de0014
:100b2000f20fb200820032000243e800800032007f
:100b3000c729de00f30fb2007d0032000343e80056
:100b40007b003200f107b2000170a000f507b2008f
:100b50000570a000c708dd004903de008680700034
:100b60004700dd00c72add004923de0086827200cf
:100b70004722dd000305510004035000858358001f
:100b80000300310000004000818048000a05e900b0
:100b90008c1f78008a9fbe0004005000858058009a
:100ba0000402420085824a00000040008180480023
:100bb0000005eb000004be006033b8000406be0070
:100bc0000d48e10056003100110009004dccd8005d
:100bd0000c01b8000d02b8008481410060824a0017
:100be0008283530003045c0084845c0060055d0024
:100bf0000a00e00025003a00800578000d40e10081
:100c000049003100880078000700780011000900d1
:100c10004d88d8000c01b8000d02b8008481410055
:100c200060824a006003110083835b0004045c005f
:100c3000e0845c000900e00021003a004f01be00a2
:100c40000300e0002b003200e301600007067300a0
:100c50008c81710001003200640070004200de00ef
:100c60004e5edd000c007000c258de0001e0a00006
:100c700083010700cf017800818071004f06be001c
:100c80004f05be004f04be00000006008c834300e9
:100c90000d044c00e0844c0060054d000000e900ac
:100ca0000a00e000d4ff32008c8343000d044c00a6
:100cb000e0844c0060054d000000e900ceff3700e5
:100cc0000c0343008d834b0060044c00e0844c0017
:100cd0000000e9000900e000d8ff32000c034300e7
:100ce0008d834b0060044c00e0844c000000e90060
:100cf000d2ff37004200de004e5edd000c007000c7
:100d0000c258de0001e0a000cf0178000300e0003f
:100d1000daff320060001000e0801800d7ff3700d3
:100d2000f0ff2f00aaff3700f0ff2f00b9ff3700b8
:100d30000404be002f010700870678000004fd00b0
:100d40008104fd002b010700078366000678a300dd
:100d5000030032000960a7000800be002c00370025
:100d60000d78a300020032000800be002800370002
:100d70000778a30026003a0001f0a10009f0a100c5
:100d80000668a30003003200f1ff2700f0ff2f00e8
:100d9000baff37000d68a300030032000800be0050
:100da0008c807000b5ff37000768a30007003a0089
:100db0000648a30003003200f1ff2700f0ff2f00d8
:100dc000aeff37000d48a300030032006000b800fa
:100dd0008c807000a9ff37000748a3000400320090
:100de00001f82700000020008c807000a3ff37006e
:100df000760107000004fd008104fd000205780073
:100e0000720107000802be008a01780059ff37000e
:100e10000160a000120220005298880097ff37005e
:100e20000100e000120032000500e0001000320076
:100e3000889fbe008a9fbe008c9fbe000006eb000c
:100e400001f8a3000300320060001000e0801800e9
:100e50000cf0a00005f8a3000300320060021200ad
:100e6000e0821a000cf0a2008005eb0041ff370081
:100e70006000b80002000500038368000700280036
:100e800007036300470ade000480a100c71ade00e2
:100e90000580a100f70f20000720e100420032008a
:100ea0000728e10040003200889fbe008a9fbe00f4
:100eb0008c1f7800f107b200f307b2000400e000d5
:100ec000640032000170a0000500e00068003200fc
:100ed0000370a00085054200eb07b1000204b800d2
:100ee0000302b8008484440060854a00020ab80006
:100ef000848444000a854a00030ab80004054500ba
:100f0000040033000804d0008984d2000a85d2008e
:100f10008b05e9006158e1003d003500021020001a
:100f2000090161000308200089816100f7072000a2
:100f30008783640008867300c84cde00c853dd0058
:100f4000878474004855de000300e000060032008c
:100f500082037600040032008904e80060054d0039
:100f60000a88a3000c003a00f70f20000758e100a0
:100f700044003d000a70a100c75ddd000a857500d0
:100f80008a007300090078004f0678004f05be0004
:100f90004f04be00000006000a05d1008984d3007a
:100fa0008b05e800f0ff3700881f78000604780002
:100fb00090000700070278000001fd008101fd009c
:100fc0008c00070087027800850372000778a30071
:100fd000050032000001fd008101fd009f000700b7
:100fe0004f04780000000600850372000748a30044
:100ff00003003200f0ff2f00f1ff2700f8ff370059
:101000000000200001f8270088807000f4ff3700fe
:10101000880178004848dd00808171004848de0082
:10102000c850dd0001007000c850de0006047800e2
:101030000b0178001600070088807000d2ff37008f
:101040000500e00005003200170020003a0007000c
:101050009dff370081037000f9ff3a008600780099
:101060004f0678004f05be004f04be00000005008b
:1010700083037100f9ff3200270020002e000700d3
:1010800094ff370001f8270086807000f4ff3700d6
:101090000100e00026003200610111007810e1003b
:1010a00023003c006022b8007010e100040035000d
:1010b00080027800010078008000eb007001510090
:1010c0000200e0000900340070031100062add0070
:1010d000822ade008603dd00878272000200de00c5
:1010e000860bdd00070070008208de00848171003d
:1010f000f4ff27000482620084817100040028004c
:10110000848262006102600005f0a6000000060013
:1011100004827100070032000000e800e08048000f
:10112000000006000002be006000b800efff3700bc
:101130006000b80000000600889fbe000004eb00bd
:101140006138e10016003a000100e00008003a00b2
:10115000c800de004800dd00880020000100e0003b
:1011600003003a00c800de004800dd0068044400c7
:101170008184cf00e9845400060034008908dd0032
:10118000f08314008703de00878070000900dd0013
:1011900009044400610214004f04be000000060070
:1011a0000300e00008003a00c811de004811dd002d
:1011b000880020000300e00003003a00c811de00b0
:1011c0004811dd00680444008384cf00e9845400a2
:1011d000060034008919dd00f08314008713de0057
:1011e000878171000911dd0009044400e102140047
:1011f000e9ff37002700200001f0a70017002000ba
:10120000470bde00f60fb200040032000643e80090
:101210000a0032004702b300000006000103780014
:10122000f607b2000603700002003a000703b3009d
:10123000000006008702b3000000060001037800ea
:10124000f607b20006037000020032000770a0002b
:10125000000006000760a000000006000478a3005c
:10126000040032000578a300030032000168a300e7
:1012700001003a000200be000160a000000006006c
:1012800081017000270032008002eb0001f8a3000a
:101290000300320060001000e080180015002000fc
:1012a000f40720000202420020003400f70320006f
:1012b000870360000604200000036300020820008a
:1012c000000161004700de00c909dd0000807100f7
:1012d000c708de000600e000080032008703710046
:1012e000060032001000b0000180b0000188a300a9
:1012f00002003200c108de000402e800f107b2007b
:10130000f30f20000320e10003003d004722dd0031
:10131000810072002900370001f827000000eb006f
:10132000260037006000b8000000060068021200c6
:101330007f20e100020034006000b8001f00370089
:101340006011b8007020e1000400350080017800d1
:10135000010078008000eb00700252000400e00001
:1013600009003400f00312000719dd008419de00c3
:101370000703dd00868171000400de00070bdd003d
:10138000060070008408de00f7ff270083836300f7
:101390008703710006002800030363000700320082
:1013a0000700e00003003a00610160000281730061
:1013b000020032001000b0000180b0000500a6005d
:1013c0000000060001f0a000000006004f0ade0049
:1013d0004709de00f107b200f20fb2000b00320045
:1013e000f207b1000170a000c708dd00c901de00ee
:1013f000838070004700dd000400a60000000600a6
:1014000060001000e080180000000600810f7000ee
:1014100001003a00000006008182cf000500e000d4
:1014200010003e008082cf00ee8242007028e10072
:101430000400390007003e00800078000000eb0047
:101440000e003700708312008600de000500dd000c
:101450000a003700708352008600dd000000eb00b8
:1014600006003700e28252008508dd00708312001a
:101470000603de00868070000500dd007507b00001
:101480000501ea000400a60000000600600010004c
:10149000e080180000000600889fbe008a9fbe0002
:1014a000841f78007c0007004f0078001100330093
:1014b000f0ff2f00838f6c0006003b0004056500e1
:1014c0000a00a7000800370009f0a600100020005d
:1014d00008003700820f5400838f5c00030039003e
:1014e0001000200001003e000000200009f0a700cd
:1014f0000000ea004f05be004f04be000000e000ff
:1015000000000600881f7800030478000300e00054
:1015100007003d0060001000e08018006001190025
:10152000e081190002003b0001f02d0003003700ac
:101530000400070008f0a70001f0a0004f047800a5
:1015400000000600889fbe008a9fbe0000827000d7
:101550000402710004827100260032000004be0003
:101560000200be006011b8006b0920009502200047
:101570000182cf000a0039000541b1000082cf008e
:10158000070039000541b1000982cf00040039008d
:101590000541b1000882cf00010039000541b100ca
:1015a00005425200120032000a003b0082817100a5
:1015b000610164008100d1000080d3008984d300e0
:1015c0000884d3008b05e8000442e800f7ff3a00e6
:1015d000070037000804440089844c0000004800dc
:1015e000818048008b05e9000442e900f9ff3a00d8
:1015f000030007004f05be004f04be0000000600b8
:1016000081002000618055000b003d000b00200090
:1016100061fe2f000100e1001d0034008281710095
:10162000610164008904d1000884d3000000e8004f
:10163000faff3a00710020006100640003007000ae
:10164000020060000900320061044400e0844c00a4
:101650000988a500050032008b05e8006808e10054
:1016600002003a008904d1000884d300f20f200060
:101670000258e10005003d00c75ddd00f907b2003a
:101680008980750008007800000006000bf827002c
:101690008b007800000005000004be0001fc07007c
:1016a0000003be000405be000200be00fdfb0700f3
:0816b000844f750000000600e4
:020000040000fa
:1016b8000000fa004c2f02000100000091e9b70079
:1016c80013c0b30092c0b30011c0b30020ff2d00b7
:1016d800d05c0200000000009269ef00401f20006b
:1016e800f470020000000000401f2000f4700200a7
:1016f8000000000091c9bf000004e000160032009d
:1017080010c0b30092e9b70023c0b30042c0b300d1
:1017180011c0b30010592e00d05c02000000000078
:10172800800c2000f47002000000000023c0b30009
:1017380042c0b30011c0b30010592e00d05c0200a3
:101748000000000041c0b30010c0b30020650200d3
:1017580000000000170037009269ef0023c0b300b3
:1017680042c0b30011c0b300b0612e00d05c0200cb
:1017780000000000c0122000f47002000000000009
:1017880023c0b30042c0b30011c0b300b0612e0043
:10179800d05c02000000000041c0b30060c0b3008c
:1017a8002065020000000000800c2000f470020098
:1017b800000000000080fa00000006000200fa00a5
:1017c80013c0b30092c0b30011c0b300c0ff2d0016
:1017d800d05c0200000000000040eb00004f7800e1
:1017e8008040eb000e00e8000148780011c0b3000b
:1017f8000e00e800014878004a0037008e6c0200ad
:10180800000000000041eb00011020005080200083
:10181800d2340200010000000040eb00801f780075
:101828000040eb00801f78000040eb00801f78002c
:101838008043eb000043eb008042eb000042eb00ea
:101848008041eb0092c5b3000e00e800904078009c
:10185800508020007040020001000000e687570019
:10186800220020008000eb00508020004c3d020048
:10187800010000000228ef004228ef004028ef0096
:101888000000000000428000ea0f5000fdff360013
:1018980047c8bf00e14f500027003a004768ef00f3
:1018a800104080000000e90080007800508020008f
:1018b800903e0200010000000000e0001500320028
:1018c8000e00e80010407800f03e02000100000021
:1018d80049c8bf00e14f50000a003a004968ef00cc
:1018e8000228ef004228ef001e4fe8000e00e80033
:1018f800104078008040e8000e00e80001487800b9
:10190800080037000228ef000228ef004228ef0005
:101918000a0037000228ef000228ef004228ef00f3
:10192800060037000e00e80010407800e24f500033
:10193800b2ff36000100370000000000986c02007a
:10194800000000001e4078000004e0001f00320084
:1019580023c0b30042c0b30011c0b30010592e0019
:10196800d05c020000000000800c2000f47002002f
:101978000000000023c0b30042c0b30011c0b30090
:1019880010592e00d05c02000000000033c0b300e4
:1019980062c0b30011c0b30070072e00d05c020013
:1019a800000000001e80fb0033c0b30022c0b3005b
:1019b80071c0b300725d02000000000020c0b300d7
:1019c8004e710200000000001c00370023c0b30065
:1019d80042c0b30011c0b300b0612e00d05c020059
:1019e80000000000c0122000f47002000000000097
:1019f80023c0b30042c0b30011c0b300b0612e00d1
:101a0800d05c02000000000033c0b300c2c0b300c5
:101a180011c0b300e0072e00d05c020000000000f7
:101a280041c0b30050c0b3002065020000000000b0
:101a3800800c2000f4700200000000000080fa0012
:101a4800000006000c00fa00881f78000040eb0038
:101a5800004f78008000eb000e80e8000108780055
:101a6800110220000e80e800010878000040eb0019
:101a7800004f7800160037001e84fb000e80e80037
:101a880010007800804078000e80e8001000780090
:101a98004800de000040780001417800804078006e
:101aa80060cab300aa530200000000008800470083
:101ab800e4804000804878000e80e800100078003c
:101ac8008000e8000e80e800010878001e4fe8005a
:101ad8001e407800e64f5000e7ff360064004700dc
:101ae80034c0b30073c0b3000041eb00d1c0b300f1
:101af80036610200000000004f0478000080fa0000
:101b0800000006000400fa008e80e8008048780093
:101b18000040eb00004f78000e80e800104078008d
:101b28000080fb006101b9000080eb008080eb00c1
:101b3800020040008380480092002000030020003b
:101b4800820f5000838f580033003e000060010070
:101b5800090037000c0037000f003700120037006b
:101b680015003700180037001b0037001e0037002b
:101b7800210037002400370081c1b3000e80e8003f
:101b88000148780031003700e1c1b3000e80e80059
:101b9800014878002d00370011c2b3000e80e8001c
:101ba800014878002900370031c2b3000e80e800f0
:101bb800014878002500370051c2b3000e80e800c4
:101bc800014878002100370071c2b3000e80e80098
:101bd800014878001d00370091c2b3000e80e8006c
:101be8000148780019003700b1c2b3000e80e80040
:101bf8000148780015003700d1c2b3000e80e80014
:101c0800014878001100370001c4b3000e80e800d5
:101c1800014878000d00370051c2b3000e80e8007b
:101c28000148780050c0b30056e8b70056c8bf0056
:101c380080417800c2c2b3008040eb0060cab300a4
:101c48004053020000000000000000001b000700d5
:101c58000040eb00004f7800110037001000200012
:101c6800f47002000000000074e6a80010002000d4
:101c7800f47002000000000074e6a90010002000c3
:101c8800f47002000000000076e6a80010002000b2
:101c9800f47002000000000074e6a8001e4fe8007f
:101ca8000e80e800104078009e40780080cf5000f9
:101cb800eaff36000080fa00000006000200fa0081
:101cc8000040eb00004f78000040eb00004f780028
:101cd8000e00370010002000f47002000000000021
:101ce80074e6a80010002000f47002000000000054
:101cf80074e6a90010002000f47002000000000043
:101d080076e6a90074e6a8001e4fe80000c4b300f8
:101d18009e40780080cf5000eeff36000080fa0029
:101d2800000006000600fa00e4004700804878003a
:101d38008040eb000e80e800014878000703370078
:101d48000041eb000110200050802000d234020036
:101d5800010000000040eb00801f78000040eb000d
:101d6800801f78000040eb00801f78008043eb0064
:101d78000043eb008042eb000042eb008041eb00a7
:101d880012c5b30011c0b30050802000704002009b
:101d980001000000e6875700220020008000eb00c9
:101da800508020004c3d020001000000800c200003
:101db800f4700200000000000041eb000110200058
:101dc80050802000d2340200010000000040eb00e7
:101dd800801f78000040eb00801f78000040eb0077
:101de800801f78008043eb000043eb008042eb004b
:101df8000042eb008041eb0012c5b30021c0b300e4
:101e0800508020007040020001000000e687570063
:101e1800220020008000eb00508020004c3d020092
:101e280001000000800c2000f47002000000000097
:101e3800e43f02000100000011c0b3000e00e800fa
:101e480001487800bf0237008cc9bf00e14f50003d
:101e580019003a008c69ef00ea6d020000000000ea
:101e68008de9b7008dc9bf006f40600090e9b700e9
:101e780090c9bf00ee4f500003003a0010c0b300f5
:101e88004be8b700b5023700ea6d02000000000019
:101e98008de9b7008dc9bf006f40600090e9b700b9
:101ea80090c9bf00ee4f500003003a0010c0b300c5
:101eb8004be8b700a90237000e00e8001040780090
:101ec800f04f500005003e0010c0b300004f7800ee
:101ed8000e80e8008e00e800114878000e00e80047
:101ee80010407800f04f50000700360020c0b300c3
:101ef800004f78000e00e80010407800f0405000d5
:101f08000e80e800014878000e00e80010407800d4
:101f1800f14f50001e003a000041eb000110200074
:101f280050802000d2340200010000000040eb0085
:101f3800801f78000040eb00801f78000040eb0015
:101f4800801f78008043eb000043eb008042eb00e9
:101f58000042eb008041eb0012c5b3009e407800c0
:101f6800508020007040020001000000e687570002
:101f7800220020008000eb00508020004c3d020031
:101f880001000000800c2000f47002000000000036
:101f98000041eb000110200050802000d2340200e4
:101fa800010000000e80e8001040780070404000fa
:101fb8008040eb00811f78008040eb00811f780093
:101fc8008040eb00811f78008043eb000043eb006a
:101fd8008042eb008e80e800114278008041780052
:101fe80042c6b3009e407800508020007040020036
:101ff80001000000e6875700420020008000eb0047
:10200800508020004c3d020001000000800c2000a0
:10201800f470020000000000d136800000042000a7
:10202800008060000000e00038003a00d1368000ef
:1020380000042000008060000000e00033003a0047
:10204800d136800000042000008060000000e0001d
:102058002e003a0033c0b30092c0b30011c0b300e1
:1020680010542e00d05c0200000000000e00e800b2
:10207800104078000080fb0033c0b30022c0b300da
:10208800a1c0b300725d0200000000000041eb0037
:102098000110200050802000d2340200010000000e
:1020a8000040eb00801f78000040eb00801f7800a4
:1020b8000040eb00801f78008043eb000043eb00fa
:1020c8008042eb000042eb000e80e800904178006f
:1020d800b2c4b3009e4078005080200070400200d7
:1020e80001000000e6875700320020008000eb0066
:1020f800508020004c3d0200010000000019200023
:10210800f470020000000000140237000041eb00e8
:102118000110200050802000d2340200010000008d
:102128000e80e80010407800704040008040eb00ce
:10213800811f78008040eb00811f78008040eb0011
:10214800811f78008043eb000043eb008042eb00e6
:10215800004278000e80e8009041780042c6b30043
:102168009e4078005080200070400200010000006e
:10217800e6875700420020008000eb0050802000d6
:102188004c3d020001000000800c2000f4700200a9
:1021980000000000d13680000004200000806000ac
:1021a8000000e0003e003a00d13680000004200024
:1021b800008060000000e00039003a00d13680005d
:1021c80000042000008060000000e00034003a00b5
:1021d80030c0b300d46102000000000033c0b30077
:1021e80092c0b30011c0b30010542e00d05c02009e
:1021f800000000000e00e800104078000080fb009e
:1022080033c0b30022c0b300a1c0b300725d0200a6
:10221800000000000041eb00011020005080200069
:10222800d2340200010000000e80e800104078005f
:10223800704040008040eb00811f78008040eb0038
:10224800811f78008040eb00811f78008043eb00fd
:102258000043eb008042eb00004278000e80e8006b
:102268009041780022c6b3009e407800508020003c
:102278007040020001000000e6875700420020007d
:102288008000eb00508020004c3d0200010000005f
:1022980000192000f470020000000000af013700b0
:1022a8000e80e80010407800704040008040eb004d
:1022b800811f78008040eb00811f78008040eb0090
:1022c800811f78008043eb000043eb008042eb0065
:1022d800004278000e80e8009041780022c6b300e2
:1022e8009e407800508020007040020001000000ed
:1022f800e6875700420020008000eb005080200055
:102308004c3d020001000000800c2000f470020027
:10231800000000000e80e800104078007040400087
:102328008040eb00811f78008040eb00811f78001f
:102338008040eb00811f78008043eb000043eb00f6
:102348008042eb00004278000e80e800904178005f
:1023580012c6b3009e4078005080200070400200f2
:1023680001000000e6875700420020008000eb00d3
:10237800508020004c3d020001000000800c20002d
:10238800f470020000000000d13680000004200034
:10239800008060000000e00037003a000e80e8008e
:1023a80010407800704040008040eb00811f7800aa
:1023b8008040eb00811f78008040eb00811f78008f
:1023c8008043eb000043eb008042eb0000427800c2
:1023d8000e80e8009041780022c6b3009e40780045
:1023e800508020007040020001000000e68757007e
:1023f800420020008000eb00508020004c3d02008d
:1024080001000000800c2000f470020000000000b1
:1024180030c0b300d46102000000000033c0b30034
:1024280022c1b30011c0b300505c2e00d05c020082
:10243800000000000e00e800104078000080fb005b
:1024480033c0b30022c0b30051c0b300725d0200b4
:10245800000000000e00e80090407800640047008b
:102468001040780080cf500015013a0010c0b3002a
:102478004ae8b70012013700d13680000004200076
:10248800008060000000e0000d0132000e00e8004e
:10249800104078008040e800630047000148780059
:1024a800ff0037008cc9bf00e14f50000d003a0013
:1024b8008c69ef00ea6d0200000000008de9b700aa
:1024c8008dc9bf006f40600090e9b70090c9bf0098
:1024d800ee4f500003003a0010c0b3004be8b700bd
:1024e800f60037006300470010407800f04f5000b6
:1024f80005003e0010c0b300004f78000e80e800d1
:10250800e300470011487800630047001040780056
:10251800f04f50000700360020c0b300004f78008d
:102528006300470010407800f04050000e80e8003b
:10253800014878000041eb00011020005080200085
:10254800d2340200010000000e80e800104078003c
:10255800704040008040eb00811f78008040eb0015
:10256800811f78008040eb00811f78008043eb00da
:102578000043eb008042eb00004278000e80e80048
:102588009041780012c6b3009e4078005080200029
:102598007040020001000000e6875700420020005a
:1025a8008000eb00508020004c3d0200010000003c
:1025b800800c2000f470020000000000d13680007a
:1025c80000042000008060000000e00024003200c9
:1025d8000041eb000110200050802000d23402009e
:1025e800010000000e80e8001040780070404000b4
:1025f8008040eb00811f78008040eb00811f78004d
:102608008040eb00811f78008043eb000043eb0023
:102618008042eb00004278000e80e800904178008c
:1026280022c6b3009e40780050802000704002000f
:1026380001000000e6875700420020008000eb0000
:10264800508020004c3d020001000000800c20005a
:10265800f470020000000000000000005400370081
:10266800d136800000042000008060000000e000f7
:102678004f003a000041eb0001102000508020007c
:10268800d2340200010000000e80e80010407800fb
:10269800704040008040eb00811f78008040eb00d4
:1026a800811f78008040eb00811f78008043eb0099
:1026b8000043eb008042eb00004278000e80e80007
:1026c8009041780022c6b3009e40780050802000d8
:1026d8007040020001000000e68757004200200019
:1026e8008000eb00508020004c3d020001000000fb
:1026f800800c2000f47002000000000030c0b3001d
:10270800d46102000000000033c0b300a2c0b300cf
:1027180011c0b30050552e00d05c0200000000002c
:102728000e00e800104078000080fb0033c0b300c2
:1027380022c0b300b1c0b300725d02000000000007
:102748001e407800e14f500009003a000e80e80072
:10275800104078000080fb0033c0b30022c0b300f3
:10276800f1c0b300725d0200000000000c003700e9
:102778001e407800e24f500009003a000e80e80041
:10278800104078000080fb007000400033c0b300a8
:1027980022c0b300f1c0b300725d02000000000067
:1027a800800c2000f4700200000000004300370095
:1027b80063004700904078006400470010407800ac
:1027c80080cf500031003a000041eb00011020009a
:1027d80050802000d2340200010000000e80e80082
:1027e80010407800704040008040eb00811f780066
:1027f8008040eb00811f78008040eb00811f78004b
:102808008043eb000043eb008042eb00004278007d
:102818000e80e8009041780022c6b3009e40780000
:10282800508020007040020001000000e687570039
:10283800420020008000eb00508020004c3d020048
:1028480001000000800c2000f4700200000000006d
:1028580033c0b30022c1b30011c0b30090562e009c
:10286800d05c0200000000000e00e8001040780074
:102878000080fb0033c0b30022c0b30051c0b300d6
:10288800725d0200000000000c0037006300470082
:10289800104078008040e800630047000148780055
:1028a80063004700904078006400470010407800bb
:1028b80080cf5000fbfe3600280037002700370085
:1028c8008cc9bf00e14f500019003a008c69ef0035
:1028d800ea6d0200000000008de9b7008dc9bf0055
:1028e8006f40600090e9b70090c9bf00ee4f5000fc
:1028f80003003a0010c0b3004be8b70017003700d8
:10290800ea6d0200000000008de9b7008dc9bf0024
:102918006f40600090e9b70090c9bf00ee4f5000cb
:1029280003003a0010c0b3004be8b7000b003700b3
:102938000e00e800104078008040e8000e00e80033
:10294800014878000e00e8009040780064004700d5
:102958001040780080cf50003bfd36004ac8bf00c9
:102968000004e00003003a004bc8bf000004e00088
:10297800f3fc32004ac8bf00e14f500013003a0090
:1029880020c0b300d46102000000000030c0b300d2
:10299800d46102000000000033c0b300f2c0b300ed
:1029a80011c0b300505a2e00d05c02000000000095
:1029b800401f2000f47002000000000030c0b30087
:1029c800d461020000000000150037004bc8bf00aa
:1029d800e14f500012003a0020c0b300d461020059
:1029e8000000000030c0b300d46102000000000005
:1029f80033c0b300f2c0b30011c0b300505b2e0067
:102a0800d05c020000000000401f2000f4700200ab
:102a18000000000030c0b300d461020000000000d4
:102a28000080fa00000006004200fa00889fbe00fd
:102a3800010420008e804000804878008040eb0030
:102a48000e80e800014878008040eb0064004700f1
:102a5800014878006000b800660147000089be00a0
:102a6800004c80008000eb004e03020000000000d4
:102a7800660147000089be000041eb0001102000fc
:102a880050802000d2340200010000000040eb001a
:102a9800801f78000040eb00801f78000040eb00aa
:102aa800801f78008043eb000043eb008042eb007e
:102ab8000042eb008041eb0022c5b30011c0b30017
:102ac800508020007040020001000000e687570097
:102ad800220020008000eb00508020004c3d0200c6
:102ae80001000000800c2000f470020000000000cb
:102af8000041eb000110200050802000d234020079
:102b0800010000000040eb00801f78000040eb004f
:102b1800801f78000040eb00801f78008043eb00a6
:102b28000043eb008042eb000042eb008041eb00e9
:102b380022c5b30021c0b3005080200070400200bd
:102b480001000000e6875700220020008000eb000b
:102b5800508020004c3d020001000000800c200045
:102b6800f4700200000000002a400200010000008a
:102b780011c0b3000e00e80001487800ae0237002b
:102b88000e00e80010407800f04f500005003e00ad
:102b980010c0b300004f78000e80e8008e00e800f7
:102ba800114878000e00e80010407800f04f5000ff
:102bb800290036000e00e80010407800f14f500060
:102bc8001e003a000041eb00011020005080200058
:102bd800d2340200010000000040eb00801f7800a2
:102be8000040eb00801f78000040eb00801f780059
:102bf8008043eb000043eb008042eb000042eb0017
:102c08008041eb0022c5b30011c0b3005080200002
:102c18007040020001000000e687570022002000f3
:102c28008000eb00508020004c3d020001000000b5
:102c3800800c2000f47002000000000020c0b300e7
:102c4800004f78000e00e80010407800f040500077
:102c58000e80e800014878000041eb0001102000d8
:102c680050802000d2340200010000000e80e800ed
:102c780010407800704040008040eb00811f7800d1
:102c88008040eb00811f78008040eb00811f7800b6
:102c98008043eb000043eb008042eb0000427800e9
:102ca8000e80e8009041780052c6b3009e4078003c
:102cb800508020007040020001000000e6875700a5
:102cc800420020008000eb00508020004c3d0200b4
:102cd80001000000800c2000f470020000000000d9
:102ce800800c2000f470020000000000546c020008
:102cf8000000000013c0b30002c1b30011c0b3004c
:102d0800303a2e00d05c02000000000013c0b3006f
:102d180022c0b30001c1b30040382e00d05c0200cd
:102d28000000000078c9bf000080fb0013c0b3009a
:102d380032c0b30021c1b300725d02000000000080
:102d480033c0b300b2c0b30011c0b30060002e009e
:102d5800d05c020000000000f04b800080490200b7
:102d6800000000006000b800d0428800e1428800fe
:102d78006011b800e1012000a086200000350200a3
:102d880001000000c26c0200000000004468ef006f
:102d980050003700d648020000000000800078008c
:102da8006a004700010878006a00470010007800b0
:102db8008000eb004e03020000000000020020002b
:102dc80003aa23003c0702000000000030438800eb
:102dd80041438800304380004143800002002800be
:102de800b34b24003c070200000000000200200052
:102df800030a24007e05020000000000d04288007b
:102e0800e1428800d0428000e142800012030200c3
:102e1800000000000000780010438800d8428000bd
:102e2800e9428000104380008000eb004e0302005e
:102e3800000000000001be000800be00a20302005e
:102e48000000000002002400c36124003c070200c7
:102e5800000000006c0147000089be006c004700bc
:102e68001000be00120302000000000000007800fd
:102e7800204388001043800023c0b30042c0b30041
:102e880011c0b300725d02000000000023c0b3004f
:102e980012c0b30051c0b300f0362e00d05c02005f
:102ea800000000002043800023c0b30022c0b3000c
:102eb80061c0b300725d02000000000023c0b300cf
:102ec80032c0b30081c0b300d03b2e00d05c0200fa
:102ed8000000000044c8bf00fe4f5000adff3600a0
:102ee800cc6c0200000000006000b800d0428800ee
:102ef800e14288006011b800e1012000a0862000ae
:102f080000350200010000008040eb00630047002c
:102f18000148780030003700d64802000000000061
:102f2800800078006a004700010878006a004700be
:102f3800100078008000eb004e0302000000000043
:102f48000200200003aa23003c0702000000000042
:102f580030438800414388006300470010407800f0
:102f68000081fb003043800041438000c211dd0036
:102f7800a2862000028141000089be00630047004c
:102f8800104078000080fb00c200dd00a086200011
:102f9800008040001002be00d0428000e142800064
:102fa8000001be000400be00b403020000000000df
:102fb800d0428800e142880010002000f47002002e
:102fc8000000000063004700104078008040e800df
:102fd800630047000148780063004700104078000c
:102fe800fd4f5000ccff3600d4428000e5428000ff
:102ff80050438000614380000001be000400be0011
:10300800a20302000000000002002000831e24002a
:103018007e05020000000000d0428800e1428800de
:10302800d0428000e142800002002800b34b240017
:103038003c0702000000000002002000030a2400f0
:103048007e05020000000000d0428800e1428800ae
:10305800d0428000e142800012030200000000001c
:103068000000780010438800d8428000e9428000c0
:10307800104380008000eb004e03020000000000b7
:103088000001be000800be00a2030200000000000c
:1030980002002400c36124003c0702000000000075
:1030a8006c0147000089be006c0047001000be009c
:1030b800120302000000000000007800204388008e
:1030c8001043800023c0b30042c0b30011c0b30056
:1030d800725d02000000000023c0b30012c0b300fc
:1030e80051c0b300f0362e00d05c02000000000092
:1030f8002043800023c0b30022c0b30061c0b300e6
:10310800725d02000000000023c0b30032c0b300ab
:1031180081c0b300d03b2e00d05c0200000000004c
:1031280033c0b300b2c0b30011c0b30060002e00ba
:10313800d05c0200000000006000b800f042880087
:10314800014388006011b80021032000a0862000f8
:1031580000350200010000008000eb006a00470013
:10316800010878006000b8003043880041438800b7
:103178008040eb00630047000148780030003700ca
:10318800a448020000000000800078006a004700a0
:10319800010878006a004700100078008000eb0002
:1031a8004e03020000000000e202290003aa2300e7
:1031b8003c070200000000003043880041438800bb
:1031c80063004700104078000081fb003043800016
:1031d80041438000c211dd00a28620000281410027
:1031e8000089be0063004700104078000080fb00a3
:1031f800c200dd00a0862000008040001002be0052
:10320800f0428000014380000001be000400be00bf
:10321800b403020000000000f04288000143880067
:1032280010002000f4700200000000006300470056
:10323800104078008040e8006300470001487800ab
:10324800630047009040780010c3b30080cf50005f
:10325800cbff3600f04280000143800002002000ce
:10326800832424007e05020000000000f04288004c
:1032780001438800f04280000143800002002600dc
:10328800f35924007e0502000000000002402200dd
:10329800439724003c07020000000000700147002b
:1032a8000089be00d0428000e142800070014700e2
:1032b8001201be007e0502000000000074014700f4
:1032c8000089be00b849020000000000803e2000ce
:1032d800f47002000000000018c0b300e6004700c8
:1032e800740047001101be001000be000e0302006a
:1032f800000000000000e00001003c000044eb007a
:103308000804e000630032009196200091407800a4
:1033180050c5b30080cf500051003a006400470008
:10332800104078008040e8006400470001487800b9
:103338000e00e800104078008080fb0060932000b9
:103348000080400051c5b300014878007400470070
:103358001000be0012030200000000000000780008
:1033680010438800104380008000eb004e030200e9
:1033780000000000740247000001be001400be00f7
:10338800a20302000000000002002400c361240020
:103398003c07020000000000740147000089be00dd
:1033a800740047001000be00120302000000000075
:1033b800000078002043880030c0b300d4610200c8
:1033c800000000001043800033c0b30042c0b300c7
:1033d80011c0b300725d02000000000033c0b300ea
:1033e80012c0b30051c0b300f0362e00d05c02000a
:1033f800000000002043800033c0b30022c0b300a7
:1034080061c0b300725d02000000000033c0b30069
:1034180042c0b30081c0b300a03c2e00d05c0200c3
:103428000000000043c0b30022c1b30011c0b300c4
:10343800d05e2e00d05c0200000000000e00e80004
:10344800104078000080fb0043c0b30022c0b300e6
:1034580051c0b300725d0200000000007100370027
:1034680064004700104078008040e800640047008e
:10347800014878000e00e800104078008080fb00ca
:10348800609320000080400051c5b30001487800d7
:103498006400370018c0b300e60047007400470016
:1034a8001101be001000be000a0302000000000067
:1034b8000000e000010035000044eb000804e000d3
:1034c800580032000e00e800104078008080fb00b1
:1034d8006093200000804000a1cab3000148780032
:1034e800919620009140780050c5b30080cf5000dd
:1034f80044003a00740047001000be0012030200a6
:10350800000000000000780010438800104380008d
:103518008000eb004e030200000000007402470028
:103528000001be001400be00a2030200000000005b
:1035380002002400c36124003c07020000000000d0
:10354800740147000089be00740047001000be00e7
:1035580012030200000000000000780020438800e9
:1035680030c0b300d46102000000000010438000a6
:1035780033c0b30042c0b30011c0b300725d020093
:103588000000000033c0b30012c0b30051c0b30044
:10359800f0362e00d05c02000000000020438000be
:1035a80033c0b30022c0b30061c0b300725d020033
:1035b8000000000033c0b30042c0b30081c0b300b4
:1035c800a03c2e00d05c02000000000043c0b30005
:1035d80022c1b30011c0b30040602e00d05c0200cd
:1035e800000000000e00e800104078000080fb009a
:1035f80043c0b30022c0b30051c0b300725d0200e3
:1036080000000000a19620009140780050c5b3004a
:1036180080cf500003003a0010c0b3004de8b70057
:103628000c0037000e00e800104078008040e800e9
:103638000e00e800014878000e00e800904078008d
:10364800000420000e0040001040780080cf500099
:103658004bfd360040c0b300d461020000000000fa
:103668000041eb000110200050802000d2340200fd
:10367800010000000040eb00801f78000040eb00d4
:10368800801f78000040eb00801f78008043eb002b
:103698000043eb008042eb000042eb008041eb006e
:1036a80012c5b30011c0b300508020007040020062
:1036b80001000000e6875700220020008000eb0090
:1036c800508020004c3d020001000000800c2000ca
:1036d800f4700200000000000041eb00011020001f
:1036e80050802000d2340200010000000040eb00ae
:1036f800801f78000040eb00801f78000040eb003e
:10370800801f78008043eb000043eb008042eb0011
:103718000042eb008041eb0012c5b30021c0b300aa
:10372800508020007040020001000000e68757002a
:10373800220020008000eb00508020004c3d020059
:1037480001000000800c2000f4700200000000005e
:103758006400470090407800000420000e004000fc
:103768001040780080cf500015003a0010c0b30018
:103778004ce8b70020c0b300d4610200000000008c
:1037880030c0b300d46102000000000033c0b300b1
:10379800c2c0b30011c0b300c0632e00d05c0200e9
:1037a80000000000401f2000f4700200000000002c
:1037b80030c0b300d46102000000000014003700dc
:1037c80020c0b300d46102000000000030c0b30084
:1037d800d46102000000000010c0b3004de8b7003b
:1037e80033c0b300c2c0b30011c0b300f0622e00f2
:1037f800d05c020000000000401f2000f4700200ae
:103808000000000030c0b300d461020000000000d6
:103818004f04be000080fa00000006004400fa00d1
:10382800889fbe008a1f7800210420008e804000f7
:10383800804878008040eb000e80e800014878005e
:103848008040eb0064004700014878006000b80041
:10385800680147000089be00004c80008000eb0032
:103868004e03020000000000680147000089be0006
:103878002a400200010000000041eb000110200076
:1038880050802000d2340200010000000040eb000c
:10389800801f78000040eb00801f78000040eb009c
:1038a800801f78008043eb000043eb008042eb0070
:1038b8000042eb008041eb0022c5b30011c0b30009
:1038c800508020007040020001000000e687570089
:1038d800220020008000eb00508020004c3d0200b8
:1038e80001000000800c2000f470020000000000bd
:1038f8000041eb000110200050802000d23402006b
:10390800010000000040eb00801f78000040eb0041
:10391800801f78000040eb00801f78008043eb0098
:103928000043eb008042eb000042eb008041eb00db
:1039380022c5b30021c0b3005080200070400200af
:1039480001000000e6875700220020008000eb00fd
:10395800508020004c3d020001000000800c200037
:10396800f47002000000000011c0b3000e00e8006f
:1039780001487800950237000e00e80010407800f2
:10398800f04f500005003e0010c0b300004f780013
:103998000e80e8008e00e800114878000e00e8006c
:1039a80010407800f04f5000290036000e00e80063
:1039b80010407800f14f50001e003a000041eb0023
:1039c8000110200050802000d234020001000000c5
:1039d8000040eb00801f78000040eb00801f78005b
:1039e8000040eb00801f78008043eb000043eb00b1
:1039f8008042eb000042eb008041eb0022c5b3009f
:103a080011c0b30050802000704002000100000087
:103a1800e6875700220020008000eb00508020003d
:103a28004c3d020001000000800c2000f4700200f0
:103a38000000000020c0b300004f78000e00e8002e
:103a480010407800f04050000e80e80001487800ef
:103a58000041eb000110200050802000d234020009
:103a6800010000000e80e80010407800704040001f
:103a78008040eb00811f78008040eb00811f7800b8
:103a88008040eb00811f78008043eb000043eb008f
:103a98008042eb00004278000e80e80090417800f8
:103aa80052c6b3009e40780050802000704002004b
:103ab80001000000e6875700420020008000eb006c
:103ac800508020004c3d020001000000800c2000c6
:103ad800f470020000000000f096800080490200a7
:103ae800000000006000b800d0428800e142880071
:103af8006011b800e1012000a08620000035020016
:103b080001000000c26c0200000000004468ef00e1
:103b180050003700d64802000000000080007800fe
:103b28006c004700010878006c004700100078001e
:103b38008000eb004e03020000000000020020009d
:103b480003aa23003c07020000000000304388005d
:103b58004143880030438000414380000200280030
:103b6800b34b24003c0702000000000002002000c4
:103b7800030a24007e05020000000000d0428800ed
:103b8800e1428800d0428000e14280001203020036
:103b9800000000000000780010438800d842800030
:103ba800e9428000104380008000eb004e030200d1
:103bb800000000000001be000800be00a2030200d1
:103bc8000000000002002400c36124003c0702003a
:103bd800000000006e0147000089be006e0047002b
:103be8001000be0012030200000000000000780070
:103bf800204388001043800023c0b30042c0b300b4
:103c080011c0b300725d02000000000023c0b300c1
:103c180012c0b30051c0b300f0362e00d05c0200d1
:103c2800000000002043800023c0b30022c0b3007e
:103c380061c0b300725d02000000000023c0b30041
:103c480032c0b30081c0b300d03b2e00d05c02006c
:103c58000000000044c8bf00fe4f5000adff360012
:103c6800cc6c02000000000020c0b300d461020048
:103c7800000000006000b800d0428800e1428800df
:103c88006011b800e1012000a08620000035020084
:103c9800010000008040eb00630047000148780005
:103ca80030003700d648020000000000800078008d
:103cb8006c004700010878006c004700100078008d
:103cc8008000eb004e03020000000000020020000c
:103cd80003aa23003c0702000000000030438800cc
:103ce8004143880063004700104078000081fb00d2
:103cf8003043800041438000c211dd00a2862000cd
:103d0800028141000089be0063004700104078002e
:103d18000080fb00c200dd00a0862000008040007b
:103d28001002be00d0428000e14280000001be00c7
:103d38000400be00b403020000000000d042880066
:103d4800e142880010002000f4700200000000002a
:103d580063004700104078008040e8006300470097
:103d6800014878006300470010407800fd4f50007c
:103d7800ccff3600d4428000e542800050438000ea
:103d8800614380000001be000400be00a2030200df
:103d98000000000002002000831e24007e050200af
:103da80000000000d0428800e1428800d042800034
:103db800e142800002002800b34b24003c070200c7
:103dc8000000000002002000030a24007e05020013
:103dd80000000000d0428800e1428800d042800004
:103de800e142800012030200000000000000780099
:103df80010438800d8428000e942800010438000c8
:103e08008000eb004e030200000000000001be002d
:103e18000800be00a2030200000000000200240007
:103e2800c36124003c070200000000006e01470047
:103e38000089be006e0047001000be001203020099
:103e48000000000000007800204388001043800034
:103e580023c0b30042c0b30011c0b300725d0200ba
:103e68000000000023c0b30012c0b30051c0b3006b
:103e7800f0362e00d05c02000000000020438000d5
:103e880023c0b30022c0b30061c0b300725d02005a
:103e98000000000023c0b30032c0b30081c0b300eb
:103ea800d03b2e00d05c0200000000004468ef0008
:103eb8004568ef00c26c02000000000011002000fd
:103ec80066004700010878001c00370040c0b300b6
:103ed800d46102000000000033c0b300b2c0b300d8
:103ee80011c0b30060002e00d05c0200000000008a
:103ef800114c8000401f2000808f500007003200c6
:103f080033c0b30022c0b30031c1b300660047001c
:103f180010007800725d020000000000803e200062
:103f2800f4700200000000006600470010007800ee
:103f38008000e800660047000108780044c8bf0018
:103f48000080fb00cf80de00480302000000000074
:103f58000004be00104c80008000eb004e030200fd
:103f680000000000a2702d0033c223003c070200ad
:103f7800000000001ac0b3000001be000800be0027
:103f88000a030200000000000000e0000100340005
:103f98000045eb000a04e000ccff3a00cc6c0200bc
:103fa800000000006000b800f0428800014388006b
:103fb8006011b80021032000a0862000003502000f
:103fc800010000008000eb006c0047000108780049
:103fd8006000b80030438800414388008040eb000f
:103fe800630047000148780030003700a448020009
:103ff80000000000800078006c004700010878008d
:104008006c004700100078008000eb004e030200af
:1040180000000000e202290003aa23003c07020076
:1040280000000000304388004143880063004700d7
:10403800104078000081fb0030438000414380003d
:10404800c211dd00a2862000028141000089be0065
:1040580063004700104078000080fb00c200dd00cc
:10406800a0862000008040001002be00f0428000c0
:10407800014380000001be000400be00b40302003a
:1040880000000000f0428800014388001000200072
:10409800f470020000000000630047001040780040
:1040a8008040e8006300470001487800630047004b
:1040b8009040780010c3b30080cf5000cbff36008b
:1040c800f042800001438000020020008324240085
:1040d8007e05020000000000f042880001438800cd
:1040e800f04280000143800002002600f3592400ba
:1040f8007e050200000000000240220043972400d1
:104108003c07020000000000720147000089be0061
:10411800b849020000000000009780008000eb0012
:104128004e0302000000000018c0b30072014700ef
:104138001201be000e030200000000000000e000b3
:1041480001003c000044eb000804e00030003200ad
:10415800919620009140780050c5b30080cf500060
:104168001e003a0064004700104078008040e800d4
:1041780064004700014878000e00e800104078000d
:104188008080fb00609320000080400051c5b30090
:104198000148780030c0b300d4610200000000007c
:1041a80043c0b300b2c0b30011c0b300505c2e00ce
:1041b800d05c0200000000000e00e800104078000b
:1041c8000080fb0043c0b30022c0b30051c0b3005d
:1041d800725d0200000000007700370064004700ad
:1041e800104078008040e8006400470001487800eb
:1041f8000e00e800104078008080fb0060932000eb
:104208000080400051c5b300014878006a003700bb
:10421800009780008000eb004e03020000000000c1
:1042280018c0b300720147001201be000a03020061
:10423800000000000000e000010035000044eb0031
:104248000804e00007003a00d0428000e142800004
:104258006011b8000a030200000000000000e0003e
:1042680055003a000e00e800104078008080fb00fe
:104278006093200000804000a1cab3000148780084
:10428800919620009140780050c5b30080cf50002f
:1042980044003a00720047001000be0012030200fa
:1042a80000000000000078001043880010438000e0
:1042b8008000eb004e03020000000000720247007d
:1042c8000001be001400be00a203020000000000ae
:1042d80002002400c36124003c0702000000000023
:1042e800760147000089be00760047001000be0036
:1042f800120302000000000000007800204388003c
:1043080030c0b300d46102000000000010438000f8
:1043180033c0b30042c0b30011c0b300725d0200e5
:104328000000000033c0b30012c0b30051c0b30096
:10433800f0362e00d05c0200000000002043800010
:1043480033c0b30022c0b30061c0b300725d020085
:104358000000000033c0b30022c0b30081c0b30026
:10436800607c2e00d05c02000000000043c0b30057
:10437800b2c0b30011c0b300905d2e00d05c020043
:10438800000000000e00e800104078000080fb00ec
:1043980043c0b30022c0b30051c0b300725d020035
:1043a80000000000a19620009140780050c5b3009d
:1043b80080cf50000d0032000e00e8001040780059
:1043c8008040e8000e00e800014878000e00e80090
:1043d80090407800200420000e0040001040780033
:1043e80080cf500064fd3600010037000000000057
:1043f8000041eb000110200050802000d234020060
:10440800010000000040eb00801f78000040eb0036
:10441800801f78000040eb00801f78008043eb008d
:104428000043eb008042eb000042eb008041eb00d0
:1044380012c5b30011c0b3005080200070400200c4
:1044480001000000e6875700220020008000eb00f2
:10445800508020004c3d020001000000800c20002c
:10446800f4700200000000000041eb000110200081
:1044780050802000d2340200010000000040eb0010
:10448800801f78000040eb00801f78000040eb00a0
:10449800801f78008043eb000043eb008042eb0074
:1044a8000042eb008041eb0012c5b30021c0b3000d
:1044b800508020007040020001000000e68757008d
:1044c800220020008000eb00508020004c3d0200bc
:1044d80001000000800c2000f470020000000000c1
:1044e8006400470090407800200420000e0040003f
:1044f8001040780080cf500003003a0010c0b3008d
:104508004ee8b7000200370010c0b3004fe8b7000c
:104518004f0578004f04be000080fa000000060036
:104528004400fa00889fbe008a1f780021042000fa
:104538008e804000804878008040eb000e80e800c4
:10454800014878008040eb0064004700014878008b
:104558006000b800680147000089be00004c800078
:104568008000eb004e0302000000000068014700d5
:104578000089be002a400200010000000041eb0053
:104588000110200050802000d234020001000000f9
:104598000040eb00801f78000040eb00801f78008f
:1045a8000040eb00801f78008043eb000043eb00e5
:1045b8008042eb000042eb008041eb0022c5b300d3
:1045c80011c0b300508020007040020001000000bc
:1045d800e6875700220020008000eb005080200072
:1045e8004c3d020001000000800c2000f470020025
:1045f800000000000041eb00011020005080200066
:10460800d2340200010000000040eb00801f780057
:104618000040eb00801f78000040eb00801f78000e
:104628008043eb000043eb008042eb000042eb00cc
:104638008041eb0022c5b30021c0b30050802000a8
:104648007040020001000000e687570022002000a9
:104658008000eb00508020004c3d0200010000006b
:10466800800c2000f47002000000000011c0b300ac
:104678000e00e80001487800b50237000e00e80097
:1046880010407800f04f500005003e0010c0b30005
:10469800004f78000e80e8008e00e800114878008e
:1046a8000e00e80010407800f04f50002900360056
:1046b8000e00e80010407800f14f50001e003a004c
:1046c8000041eb000110200050802000d23402008d
:1046d800010000000040eb00801f78000040eb0064
:1046e800801f78000040eb00801f78008043eb00bb
:1046f8000043eb008042eb000042eb008041eb00fe
:1047080022c5b30011c0b3005080200070400200e1
:1047180001000000e6875700220020008000eb001f
:10472800508020004c3d020001000000800c200059
:10473800f47002000000000020c0b300004f7800b1
:104748000e00e80010407800f04050000e80e800ad
:10475800014878000041eb00011020005080200043
:10476800d2340200010000000e80e80010407800fa
:10477800704040008040eb00811f78008040eb00d3
:10478800811f78008040eb00811f78008043eb0098
:104798000043eb008042eb00004278000e80e80006
:1047a8009041780052c6b3009e40780050802000a7
:1047b8007040020001000000e68757004200200018
:1047c8008000eb00508020004c3d020001000000fa
:1047d800800c2000f470020000000000f0968000b9
:1047e80080490200000000006000b800d042880044
:1047f800e14288006011b800e1012000a086200095
:104808000035020001000000c26c02000000000038
:104818004468ef0050003700d6480200000000004e
:10482800800078006c004700010878006c004700a1
:10483800100078008000eb004e030200000000002a
:104848000200200003aa23003c0702000000000029
:104858003043880041438800304380004143800052
:1048680002002800b34b24003c07020000000000af
:1048780002002000030a24007e0502000000000058
:10488800d0428800e1428800d0428000e1428000a6
:1048980012030200000000000000780010438800a6
:1048a800d8428000e9428000104380008000eb007d
:1048b8004e030200000000000001be000800be0018
:1048c800a20302000000000002002400c3612400cb
:1048d8003c070200000000006e0147000089be008e
:1048e8006e0047001000be00120302000000000026
:1048f80000007800204388001043800023c0b300e4
:1049080042c0b30011c0b300725d02000000000095
:1049180023c0b30012c0b30051c0b300f0362e005c
:10492800d05c0200000000002043800023c0b300d8
:1049380022c0b30061c0b300725d02000000000035
:1049480023c0b30032c0b30081c0b300d03b2e00f7
:10495800d05c02000000000044c8bf00fe4f5000b9
:10496800adff3600cc6c02000000000020c0b30090
:10497800d4610200000000006000b800d042880046
:10498800e14288006011b800e1012000a086200003
:1049980000350200010000008040eb006300470082
:1049a8000148780030003700d648020000000000b7
:1049b800800078006c004700010878006c00470010
:1049c800100078008000eb004e0302000000000099
:1049d8000200200003aa23003c0702000000000098
:1049e8003043880041438800630047001040780046
:1049f8000081fb003043800041438000c211dd008c
:104a0800a2862000028141000089be0063004700a1
:104a1800104078000080fb00c200dd00a086200066
:104a2800008040001002be00d0428000e1428000b9
:104a38000001be000400be00b40302000000000034
:104a4800d0428800e142880010002000f470020083
:104a58000000000063004700104078008040e80034
:104a68006300470001487800630047001040780061
:104a7800fd4f5000ccff3600d4428000e542800054
:104a880050438000614380000001be000400be0066
:104a9800a20302000000000002002000831e240080
:104aa8007e05020000000000d0428800e142880034
:104ab800d0428000e142800002002800b34b24006d
:104ac8003c0702000000000002002000030a240046
:104ad8007e05020000000000d0428800e142880004
:104ae800d0428000e1428000120302000000000072
:104af8000000780010438800d8428000e942800016
:104b0800104380008000eb004e030200000000000c
:104b18000001be000800be00a20302000000000061
:104b280002002400c36124003c07020000000000ca
:104b38006e0147000089be006e0047001000be00ed
:104b480012030200000000000000780020438800e3
:104b58001043800023c0b30042c0b30011c0b300ab
:104b6800725d02000000000023c0b30012c0b30051
:104b780051c0b300f0362e00d05c020000000000e7
:104b88002043800023c0b30022c0b30061c0b3003b
:104b9800725d02000000000023c0b30032c0b30001
:104ba80081c0b300d03b2e00d05c020000000000a2
:104bb8004468ef004568ef00c26c02000000000086
:104bc8001100200066004700010878001c0037002b
:104bd80040c0b300d46102000000000033c0b3003d
:104be800b2c0b30011c0b30060002e00d05c020058
:104bf80000000000114c8000401f2000808f5000f2
:104c08000700320033c0b30022c0b30031c1b30083
:104c18006600470010007800725d02000000000086
:104c2800803e2000f470020000000000660047008b
:104c3800100078008000e80066004700010878004e
:104c480044c8bf000080fb00cf80de00480302009c
:104c5800000000000004be00104c80008000eb0043
:104c68004e03020000000000a2702d0033c2230092
:104c78003c070200000000001ac0b3000001be009b
:104c88000800be000a030200000000000000e00067
:104c9800010034000045eb000a04e000ccff3a00b4
:104ca800cc6c0200000000006000b800f0428800f0
:104cb800014388006011b80021032000a08620006d
:104cc80000350200010000008000eb006c00470086
:104cd800010878006000b80030438800414388002c
:104ce8008040eb006300470001487800300037003f
:104cf800a448020000000000800078006c00470013
:104d0800010878006c004700100078008000eb0074
:104d18004e03020000000000e202290003aa23005b
:104d28003c0702000000000030438800414388002f
:104d380063004700104078000081fb00304380008a
:104d480041438000c211dd00a2862000028141009b
:104d58000089be0063004700104078000080fb0017
:104d6800c200dd00a0862000008040001002be00c6
:104d7800f0428000014380000001be000400be0034
:104d8800b403020000000000f042880001438800dc
:104d980010002000f47002000000000063004700cb
:104da800104078008040e800630047000148780020
:104db800630047009040780010c3b30080cf5000d4
:104dc800cbff3600f0428000014380000200200043
:104dd800832424007e05020000000000f0428800c1
:104de80001438800f0428000014380000200260051
:104df800f35924007e050200000000000240220052
:104e0800439724003c07020000000000720147009d
:104e18000089be00d0428000e14280007201470054
:104e28001201be007e050200000000007601470066
:104e38000089be00b8490200000000000097800009
:104e48008000eb004e0302000000000018c0b30011
:104e5800720147001201be000e03020000000000ac
:104e68000000e00001003c000044eb000804e00002
:104e78003c00320018c0b300e80047007600470045
:104e88001101be001000be000e0302000000000069
:104e98000000e00001003c000044eb000804e000d2
:104ea80030003200919620009140780050c5b30040
:104eb80080cf50001e003a00640047001040780080
:104ec8008040e80064004700014878000e00e800d0
:104ed800104078008080fb00609320000080400034
:104ee80051c5b3000148780030c0b300d461020056
:104ef8000000000043c0b300b2c0b30011c0b3004b
:104f0800505c2e00d05c0200000000000e00e8009b
:104f1800104078000080fb0043c0b30022c0b300fb
:104f280051c0b300725d020000000000830037002a
:104f380064004700104078008040e80064004700a3
:104f4800014878000e00e800104078008080fb00df
:104f5800609320000080400051c5b30001487800ec
:104f680076003700009780008000eb004e030200b7
:104f78000000000018c0b300720147001201be0013
:104f88000a030200000000000000e00001003500f4
:104f98000044eb000804e0000c00320018c0b30025
:104fa800e8004700760047001101be001000be006f
:104fb8000a030200000000000000e00001003500c4
:104fc8000044eb000804e00007003a00d0428000eb
:104fd800e14280006011b8000a03020000000000ee
:104fe8000000e00055003a000e00e800104078008c
:104ff8008080fb006093200000804000a1cab300bd
:1050080001487800919620009140780050c5b3007f
:1050180080cf500044003a00720047001000be00e4
:10502800120302000000000000007800104388000e
:10503800104380008000eb004e03020000000000d7
:10504800720247000001be001400be00a203020065
:105058000000000002002400c36124003c07020095
:1050680000000000760147000089be007600470076
:105078001000be00120302000000000000007800cb
:105088002043880030c0b300d46102000000000053
:105098001043800033c0b30042c0b30011c0b30056
:1050a800725d02000000000033c0b30012c0b300fc
:1050b80051c0b300f0362e00d05c020000000000a2
:1050c8002043800033c0b30022c0b30061c0b300e6
:1050d800725d02000000000033c0b30022c0b300bc
:1050e80081c0b300607c2e00d05c0200000000008c
:1050f80043c0b300b2c0b30011c0b300905d2e002e
:10510800d05c0200000000000e00e80010407800ab
:105118000080fb0043c0b30022c0b30051c0b300fd
:10512800725d020000000000a19620009140780006
:1051380050c5b30080cf50000d0032000e00e800cb
:10514800104078008040e8000e00e8000148780030
:105158000e00e80090407800200420000e00400077
:105168001040780080cf500044fd36000100370021
:10517800000000000041eb000110200050802000da
:10518800d2340200010000000040eb00801f7800cc
:105198000040eb00801f78000040eb00801f780083
:1051a8008043eb000043eb008042eb000042eb0041
:1051b8008041eb0012c5b30011c0b300508020003d
:1051c8007040020001000000e6875700220020001e
:1051d8008000eb00508020004c3d020001000000e0
:1051e800800c2000f4700200000000000041eb0079
:1051f8000110200050802000d2340200010000007d
:105208000040eb00801f78000040eb00801f780012
:105218000040eb00801f78008043eb000043eb0068
:105228008042eb000042eb008041eb0012c5b30066
:1052380021c0b3005080200070400200010000002f
:10524800e6875700220020008000eb0050802000f5
:105258004c3d020001000000800c2000f4700200a8
:1052680000000000640047009040780020042000ff
:105278000e0040001040780080cf500005003a0032
:1052880010c0b3004ee8b70010c0b3004ce8b70038
:105298000400370010c0b3004fe8b70010c0b300d7
:1052a8004de8b7004f0578004f04be000080fa00b3
:1052b800000006001200fa00881f78000040eb008a
:1052c800004f78008000eb000e80e80001087800ad
:1052d8008040eb006400470001487800110220007c
:1052e8000e80e8000108780065004700b100200042
:1052f800de40020001000000e4004700804878001a
:105308006400470010407800e14f500065003a0003
:105318006500470010407800e74f40000f0032005a
:105328006600470090407800f0c3b30080cf50007b
:105338000a0032006700470090407800d0c4b300ec
:1053480080cf500005003200680047009040780088
:10535800c0c6b30080cf500043003a0040c0b3003d
:10536800004f78002c0037001e80fb00000047002b
:1053780065004000104178000e80e80010007800b9
:10538800804078000e80e800100078004800de00b9
:105398000040780082417800014178008040780020
:1053a80060cab30040530200000000001e80fb00ea
:1053b800000047008040eb0065004000014878008d
:1053c8001e84fb000e80e800100078008040780002
:1053d8000e80e800100078004800de0000407800e9
:1053e800014178008040780060cab300aa530200e7
:1053f8000000000088004700e580400080487800f1
:105408000e80e800100078008000e8000e80e800b8
:10541800010878001e4fe8001e407800ea4f50004f
:10542800d1ff36006500470034c0b30073c0b30035
:1054380042c0b30011c0b300366102000000000092
:1054480033c0b30042c0b30081c0b30020062e00b1
:10545800d05c020000000000c02b2000f4700200a5
:10546800000000000f00370033c0b30092c0b30043
:1054780011c0b300b0082e00d05c0200000000008c
:1054880033c0b30042c0b30081c0b30020062e0071
:10549800d05c020000000000c02b2000f470020065
:1054a800000000004f0478000080fa0000000600a9
:1054b8000000fa0040c0b300d46102000000000000
:1054c800e866020001000000504c800000407800af
:1054d80014f207004ac8bf00e14f5000f4003a0038
:1054e8004a68ef00019720009140780050c5b3004a
:1054f80080cf500027003a00f196200091407800b4
:1055080050c5b30080cf500022003a0023c0b3003a
:1055180072c0b30011c0b30050432e00d05c02002b
:105528000000000033c0b300e2c0b30011c0b300f4
:10553800d0432e00d05c02000000000010c0b30071
:105548004e7102000000000020c0b300d4610200c8
:105558000000000030c0b300d46102000000000069
:1055680010c0b300e2f2b700f1968000f04b800063
:10557800808f500004003a00504c800000407800b2
:10558800e7fb070003003700504c8000004078001c
:10559800db090700f19620009140780050c5b30060
:1055a80080cf500012003a00e2d2bf00e14f500015
:1055b8000f00320020c0b300d461020000000000d8
:1055c80023c0b30072c0b30011c0b30050432e0013
:1055d800d05c02000000000010c0b3004e71020051
:1055e80000000000404c8000004078000ef50700e5
:1055f800e2d2bf00e14f50002100320001972000a5
:105608009140780050c5b30080cf500005003a00a3
:10561800f196200091407800a0cab30080cf5000d6
:1056280008003200019720009140780050c5b3006f
:1056380080cf500012003a004cc8bf00e14f500024
:105648000f003a0020c0b300d4610200000000003f
